:020000040000fa
:080000000001040000000000f3
:020000040000fa
:10000800d0020000d0020000d0020000d0020000a0
:10001800d0020000d0020000d0020000d002000090
:10002800d0020000d0020000d0020000d002000080
:10003800d0020000d0020000d0020000d002000070
:10004800d002000094010000d0020000d00200009d
:10005800d0020000d0020000d0020000d002000050
:10006800d0020000d0020000d0020000d002000040
:10007800d0020000d0020000d0020000d002000030
:10008800d0020000d0020000d0020000d002000020
:10009800d0020000d0020000d0020000d002000010
:1000a800d0020000d0020000d0020000d002000000
:1000b800d0020000d0020000d0020000d0020000f0
:1000c800d0020000d0020000d0020000d0020000e0
:1000d800d0020000d0020000d0020000d0020000d0
:1000e800d0020000d0020000d0020000d0020000c0
:0800f800d0020000d00200005c
:020000040000fa
:10010800d0020000d0020000d0020000d00200009f
:10011800d0020000d0020000d0020000d00200008f
:10012800d0020000d0020000d0020000d00200007f
:10013800d0020000d0020000d0020000d00200006f
:10014800d002000094010000d0020000d00200009c
:10015800d0020000d0020000d0020000d00200004f
:10016800d0020000d0020000d0020000d00200003f
:10017800d0020000d0020000d0020000d00200002f
:10018800d0020000d0020000d0020000d00200001f
:10019800d0020000d0020000d0020000d00200000f
:1001a800d0020000d0020000d0020000d0020000ff
:1001b800d0020000d0020000d0020000d0020000ef
:1001c800d0020000d0020000d0020000d0020000df
:1001d800d0020000d0020000d0020000d0020000cf
:1001e800d0020000d0020000d0020000d0020000bf
:0801f800d0020000d00200005b
:020000040000fa
:100200002f8020000eff20000e018800000000005b
:1002100000012000200288000c000700e0422000be
:100220000100200011000700000020000000e00095
:10023000020032000000020000000000b4010200d1
:10024000000000000040da000000fe004440a90069
:10025000000620000000e000030032000000200043
:10026000a00188004440a800000006009101880019
:10027000800078000000eb0015003700e2804000ad
:1002800032a0b4009101ba00e280400032a0b40074
:100290009102ba00e280400032a0b4000002eb00fc
:1002a000472bde00f507b200602ce10004003a00a5
:1002b0000059eb008301e900fdff3e000400370018
:1002c0006128e100010032000082eb000400070019
:1002d0001101ba000200e000e8ff3a000000060049
:1002e0003159ba008301e9000c0032002159ba00eb
:1002f0008301e900080032000400e00003003a0036
:10030000e280400032a0b400f5ff370011d9ba00f6
:100310008301e900faff3a008100e800e180400033
:1003200032a0b40000000600801f7800841f78000f
:100330003400f80000002000a00188000000fa004e
:100340008520a900941080000442780004407800c1
:1003500000e8b7000080fa003400f9004f0278008e
:100360004f007800004006000000fa00a802a80034
:10037000a822a800a842a800a862a800a882a800f5
:10038000a962a800a982a800c602a800c622a800e7
:10039000c642a800c662a800c682a800c762a8001c
:1003a000c782a800de22a800af00070001003700c6
:1003b000000000004416800061026200e00f52005d
:1003c0000a0032004416800064026200e00f52000e
:1003d00006003a004416800068026200e00f5200f6
:1003e00002003a00402d2800030107004416800057
:1003f00061026200e00f52000600320044168000e5
:1004000064026200e00f520002003200c02d28009a
:10041000f90007004416800061026200e00f5200fc
:10042000060032004416800068026200e00f5200ad
:1004300002003200402e2800ef0007004416800022
:1004400062026200e00f52000a003200441680008f
:1004500064026200e00f520006003a004416800079
:1004600068026200e00f520002003a00c02e28002d
:10047000e10007004416800062026200e00f5200b3
:10048000060032004416800064026200e00f520051
:1004900002003200402f2800d700070044168000d9
:1004a00062026200e00f5200060032004416800033
:1004b00068026200e00f520002003200c02f2800e4
:1004c000cd0007004416800064026200e00f520075
:1004d0000a0032004416800061026200e00f520000
:1004e00006003a004416800062026200e00f5200eb
:1004f00002003a0040302800bf0007004416800088
:1005000068026200e00f52000a00320044168000c8
:1005100061026200e00f520006003a0044168000bb
:1005200062026200e00f520002003a00c030280070
:10053000b10007004416800070026200e00f520014
:100540000200320040312800ab0007004516800051
:100550000400210004826200e00f52000200320019
:10056000c0312800a4000700451680000480200048
:1005700004826200e00f5200020032004032280084
:100580009d0007000417800062026200e00f520025
:1005900087ff3200c03228009700070085ff370030
:0805a0000040da000000fe003b
:020000040000fa
:1005a80030300000306e00006e6e00006e000000fb
:1005b800303000003061000061610000610000001f
:1005c800303000003062000062620000620000000b
:1005d80030300000307200007272000072000000bb
:1005e80030300000306300006363000063000000e7
:1005f80030300000306400006464000064000000d3
:1006080030300000306c00006c6c00006c000000a2
:100618003030000030780000787800007800000062
:100628003030000030740000747400007400000062
:1006380030300000306b00006b6b00006b00000076
:100648003030000030680000686800006800000072
:10065800303000003075000075750000750000002e
:020000040000fa
:100668000000fa00f4172000a41088000d42a90029
:100678008d20a80075108000c4ff2f00048262003e
:10068800741088000de2a8000f42a8000080fa004c
:10069800000006000200fa00000f780000000000c9
:1006a800751080000410200004826200e00f5200e0
:1006b800fbff32006410800066026200e60f520001
:1006c80003003a001e0278008410880003003700f7
:1006d800f40f20001e026200841088000080fa00d7
:1006e800000006000400fa00100798009e0290001f
:1006f800843e2000110009008482d800000278009e
:10070800044f78009e4278000582fb000403b00085
:1007180004007800dfff07001e4078008082fb009d
:1007280084c12f0004aab900040278009e02900038
:1007380004824200140798009e029000440620009c
:10074800110009008482d80000027800044f780064
:100758009e4278000582fb000403b0000400780084
:10076800ccff07001e4078008082fb00c4f92f00f0
:1007780004aab900040278009e0290000482420094
:10078800140798009e029000a400200011000900a0
:100798008482d80000027800044f78009e427800d6
:1007a8000582fb000403b00004007800b9ff0700cd
:1007b8001e4078008082fb0064ff2f0004aab90065
:1007c800040278009e0290000482420014079800f8
:1007d8001e0290000403b00004007800adff07007b
:1007e800d0002000abff07000080fa0000000600e0
:1007f8000000fa00881f7800000478000f00370016
:10080800184278000402fb0004007800a1ff0700ea
:1008180018427800ed4f520002003a00a000200074
:100828009cff070018427800ea4f520002003a0085
:10083800d000200097ff07000804e800184278005d
:10084800e04f5200eeff3a004f0478000080fa00b3
:040858000000060096
:020000040000fa
:10085c000008000002000000000000000000000082
:020000040000fa
:0200000401f009
:04000000e1bf00005c
:020000040000fa
:0200000401f009
:04000400ff7f00007a
:00000001FF
