:020000040000fa
:080000000001040000000000f3
:020000040000fa
:100008001e0500001e0500001e0500001e0500005c
:100018001e0500001e0500001e0500001e0500004c
:100028001e0500001e0500001e050000c801000096
:100038001e0500001e050000020200001e0500004b
:100048001e050000a80100001e0500001e05000096
:100058001e0500001e0500001e0500001e0500000c
:100068001e0500001e0500001e0500001e050000fc
:100078001e0500001e0500001e0500001e050000ec
:100088001e0500001e0500001e0500001e050000dc
:100098001e0500001e0500001e0500001e050000cc
:1000a8001e0500001e0500001e0500001e050000bc
:1000b8001e0500001e0500001e0500001e050000ac
:1000c8001e0500001e0500001e0500001e0500009c
:1000d8001e0500001e0500001e0500001e0500008c
:1000e8001e0500001e0500001e0500001e0500007c
:0800f8001e0500001e050000ba
:020000040000fa
:100108001e0500001e0500001e0500001e0500005b
:100118001e0500001e0500001e0500001e0500004b
:100128001e0500001e0500001e050000c801000095
:100138001e0500001e050000020200001e0500004a
:100148001e050000a80100001e0500001e05000095
:100158001e0500001e0500001e0500001e0500000b
:100168001e0500001e0500001e0500001e050000fb
:100178001e0500001e0500001e0500001e050000eb
:100188001e0500001e0500001e0500001e050000db
:100198001e0500001e0500001e0500001e050000cb
:1001a8001e0500001e0500001e0500001e050000bb
:1001b8001e0500001e0500001e0500001e050000ab
:1001c8001e0500001e0500001e0500001e0500009b
:1001d8001e0500001e0500001e0500001e0500008b
:1001e8001e0500001e0500001e0500001e0500007b
:0801f8001e0500001e050000b9
:020000040000fa
:10020000cf8120000eff20000e01880000000000ba
:1002100000012000200288000c000700009520004b
:100220000100200011000700000020000000e00095
:100230000200320000000200000000008e020200f6
:10024000000000000040da000000fe004440a90069
:10025000e00620000000e000030032000000200063
:10026000a00188004440a800000006009101880019
:10027000800078000000eb0015003700e2804000ad
:1002800032a0b4009101ba00e280400032a0b40074
:100290009102ba00e280400032a0b4000002eb00fc
:1002a000472bde00f507b200602ce10004003a00a5
:1002b0000059eb008301e900fdff3e000400370018
:1002c0006128e100010032000082eb000400070019
:1002d0001101ba000200e000e8ff3a000000060049
:1002e0003159ba008301e9000c0032002159ba00eb
:1002f0008301e900080032000400e00003003a0036
:10030000e280400032a0b400f5ff370011d9ba00f6
:100310008301e900faff3a008100e800e180400033
:1003200032a0b40000000600000000000000000041
:1003300000000000000000000000000000000000bd
:1003400000000000000000000000000000000000ad
:10035000801f7800841f78003400f800000020001f
:10036000a00188000000fa008520a90094108000f8
:10037000044278000440780000e8b7000080fa00ea
:100380003400f9004f0278004f007800004006006a
:100390003600f800809fbe00849fbe003400f80045
:1003a00000002000a00188000000fa000002eb001d
:1003b00004088800244080000402e80024408800eb
:1003c0002540800044062000110009008482d800e6
:1003d00001027800e00f520003003a003440800030
:1003e0000402e800344088008460a9000080fa001c
:1003f0003400f9004f02be004f00be003600f90085
:1004000000400600841f78003400f800040020003b
:10041000a40188000000fa000002eb003408880004
:1004200084c0a9000080fa003400f9004f0278006f
:10043000004006000000fa00c162a900a962a800fd
:10044000c762a900a982a800c782a900d242a90058
:10045000d302a900dec2a900d202a900a842a800c6
:10046000c642a800a822a800c622a900a882a80007
:10047000c682a800a8a2a800c6a2a900a8c2a80077
:10048000c6c2a800a862a800c662a9000080fa003f
:10049000000006000000fa00c41220006408880072
:1004a00034032000640c880034032000740c88009e
:1004b00064fc2d00840c880011e1a8000080fa0083
:1004c000000006000200fa00000f78000002eb00b6
:1004d00024408800000000009e0278002440800034
:1004e000848f5200fcff3e000080fa0000000600ee
:1004f0000200fa00000f78000002eb003440880090
:10050000000000009e02780034408000848f52007a
:10051000fcff3e000080fa00000006000000fa0028
:10052000c4ff07006802070052030700d9ff070055
:100530000451200004000100c70007000002be00b3
:100540000400be003f0107000002be000402780064
:1005500094408800f00007000002be000400be00c6
:10056000380107000002be000402780084408800c1
:1005700084408000f00f520027003c00b44080000f
:10058000e00f520024003a00606f2800b20207001a
:100590000002eb00544088001b003700445020004c
:1005a0000400010040062000d1ff0700c44d2000d8
:1005b00004000100800c2000cdff07000451200042
:1005c00004000100c0122000c9ff0700844f200072
:1005d0000400010040062000c5ff0700a44e2000d3
:1005e00004000100c00d2000c1ff070004512000dd
:1005f00004000100800c2000bdff07005440800073
:100600000402e8005440880054408000e80f520083
:10061000e2ff34008d00370094408000eb0f520061
:100620000f003c00307128008b020700445020006e
:100630000400010040062000adff0700c44d20006b
:100640000400010080072000a9ff070004512000da
:100650000400010040062000a5ff07007b003700d2
:1006600094408000eb0f52000e0034009440800054
:10067000ed0f52000b003c00c0722800760207000c
:10068000c44d2000040001006004200098ff070012
:1006900004512000040001002008200094ff0700fe
:1006a0006a00370094408000ed0f520015003400be
:1006b0009540800014032000848f520011003c00fc
:1006c0003071280064020700844f200004000100fc
:1006d0004006200086ff0700c44d200004000100f2
:1006e000c44d2000040001008007200080ff0700a7
:1006f0000451200004000100400620007cff070098
:100700005200370095408000743e2000848f5200d4
:100710004e003c00807428004f0207000002eb00ee
:10072000544088003c003700844f20000400010042
:10073000400620006eff0700c44d200004000100a9
:10074000800c20006aff0700045120000400010013
:10075000c012200066ff07003f0007000002be0035
:100760000400be00b70007000002be0004027800cb
:10077000d4408800680007000002be000400be00ec
:10078000b00007000002be0004027800c4408800e8
:10079000d4408000fd0f520003003400c4408000ac
:1007a000ee0f52000d003c00a400200054408800d1
:1007b000c4408000ee0f520008003c00a44e200010
:1007c000040001006009200049ff070004512000d7
:1007d000040001004006200045ff070044502000af
:1007e000040001004006200041ff0700a44e200045
:1007f00004000100c00d20003dff0700045120004f
:1008000004000100800c200039ff070054408000e4
:100810000402e8005440880054408000e80f520071
:10082000c1ff34000451200004000100800c2000ae
:100830002fff0700c44d2000040001002008200005
:100840002bff070004512000040001004006200097
:1008500027ff070038ff37000600fa000002eb0010
:10086000040f78006022b80014079800250798004c
:100870000002eb00b4408800ca22a800500020000b
:1008800010ff0700ca22a9000000000044168000e3
:1008900064026200e00f5200fcff320009003700e2
:1008a0001e0fe8001000200006ff0700441f200074
:1008b0009e027800848f520002003a00140020004b
:1008c000b44088004416800064026200e00f5200c9
:1008d000f3ff3a001e027800cfa2de000400be0043
:1008e000790007000002be00b2472100e3e22300c6
:1008f0000400be008c0007000002be001407980030
:10090000250798001e029000ae0290000400be0071
:100910000080fa00000006000600fa000002eb006a
:10092000040f78006022b80014079800250798008b
:10093000caa2a80050002000e2fe0700caa2a90037
:10094000000000004416800070026200e00f5200b8
:10095000fcff3200030037001e0fe80010002000eb
:10096000d8fe07004416800070026200e00f5200bb
:10097000f9ff3a001e027800cfa2de000400be009c
:10098000510007000002be00b2472100e3e223004d
:100990000400be00640007000002be0014079800b7
:1009a000250798001e029000ae0290000400be00d1
:1009b0000080fa00000006000000fa00cb62a900e7
:1009c000cb82a800a40f2000640c88000080fa00ed
:1009d000000006000000fa00cb62a800cb82a9004c
:1009e000640e2000640c88000080fa0000000600fd
:1009f0000000fa00d602a800d702a800e2c2a900af
:100a00000080fa00000006000000fa00d602a800ec
:100a1000d702a900e2c2a8000080fa000000060088
:100a20000000fa00d602a900d642a900cb82a90094
:100a3000cb62a9000080fa00000006000040da0046
:100a40000000fe000001be00220007000470a700a5
:100a500003f0a1006509b100160032000d00350059
:100a60006828e10006003500f0ff2f00f1ff2700a5
:100a70000300e00013003b00010028000000050017
:100a800000004000818048008502e900fcff3a0038
:100a900008003700f88f420002003c008000eb00a5
:100aa000000005008100d1000080d3008502e8002d
:100ab000fcff3a000300e00002003b006000100071
:100ac000e0801800000006004f89de0082017800f7
:100ad00049003700c70ade00f107b200f50fb20087
:100ae00008003200e1cf4200020032000170a00095
:100af00024000500810f7000010032000408050089
:100b000044000500810f700002003a001400050047
:100b10008502e9000000400081c04800fcff3b0066
:100b20000170a00024000500889fbe008a9fbe00bf
:100b30008c1f7800950007009c00330003866c0032
:100b40006450e100240032006420e10027003200fc
:100b50006150e100220032006120e10021003200fa
:100b60008b854200eb07b1000134b800003ab800b1
:100b70000804420089844a00013ab8000030b800f5
:100b80008880400009014a00040033000000400052
:100b900081804800020149008b05e900c909dd0098
:100ba000830170000100320013002000c814de0031
:100bb0004814dd004709de001200b200c808de005c
:100bc000088470004b00070001f0a1000cf0a700a2
:100bd00001f0a0007e0037006120e10080003200bb
:100be0000801be000200be00f7ff37006150e100bf
:100bf000fcff3a007a003700881f78000304780071
:100c00000300e00007003d0060001000e0801800d5
:100c100060011900e081190002003b0001f02d0085
:100c2000030037000400070008f0a70001f0a0004f
:100c30004f04780000000600889fbe008a9fbe0017
:100c400000827000040271000482710026003200ec
:100c50000004be000200be006011b8006b09200055
:100c6000950220000182cf000a0039000541b10041
:100c70000082cf00070039000541b1000982cf0092
:100c8000040039000541b1000882cf00010039009d
:100c90000541b10005425200120032000a003b003b
:100ca00082817100610164008100d1000080d30065
:100cb0008984d3000884d3008b05e8000442e8004f
:100cc000f7ff3a00070037000804440089844c000d
:100cd00000004800818048008b05e9000442e900db
:100ce000f9ff3a00030007004f05be004f04be00a5
:100cf0000000060081002000618055000b003d00cf
:100d00000b00200061fe2f000100e1001d003400f7
:100d100082817100610164008904d1000884d300dc
:100d20000000e800faff3a00710020006100640052
:100d300003007000020060000900320061044400fa
:100d4000e0844c000988a500050032008b05e8000e
:100d50006808e10002003a008904d1000884d30049
:100d6000f20f20000258e10005003d00c75ddd00e4
:100d7000f907b200898075000800780000000600bd
:100d80000bf827008b007800000005000004be006f
:100d900050ff07000003be000405be000200be00b5
:100da0004cff0700844f7500000006000200be00e3
:100db0006450e100050036006420e10002003600c6
:100dc0000968a30001003a000800be000160a0000d
:100dd0004f0678004f05be004f04be00000006001d
:0c0de000f0ff2f00f1ff2700f9ff3700a3
:020000040000fa
:100dec002d2d00002d2d00002d2d0000536b00002b
:100dfc0072650000746100006e6a000065200000de
:100e0c006c6900006a650000766f00002d2d0000f3
:100e1c002d2d00002d2d0000002d00002d2d00008b
:100e2c002d2d00002d490000737000007261000030
:100e3c00766c00006a6100006e6a0000652d00008f
:100e4c002d2d00002d2d00002d0000002d2d00005b
:100e5c002d2d00002d2d0000566f00007a6e000025
:100e6c006a610000206e0000617000007269000071
:100e7c006a650000642d00002d2d00002d2d000052
:100e8c002d0000002d2d00002d2d00002d2d00001b
:100e9c00536b000072650000746100006e6a000004
:100eac006520000064650000736e00006f2d00006b
:0c0ebc002d2d00002d2d00002d00000049
:020000040000fa
:100ec8000000fa00f4022000a41088000d42a800d7
:100ed8008d20a80075108000c4ff2f0004826200d6
:100ee800741088000de2a8000f42a8000080fa00e4
:100ef800000006000200fa00000f78000000000061
:100f0800751080000410200004826200e00f520077
:100f1800fbff32006410800066026200e60f520098
:100f280003003a001e02780084108800030037008e
:100f3800f40f20001e026200841088000080fa006e
:100f4800000006000400fa00100798009e029000b6
:100f5800843e2000110009008482d8000002780035
:100f6800044f78009e4278000582fb000403b0001d
:100f780004007800dfff07001e4078008082fb0035
:100f880084c12f0004aab900040278009e029000d0
:100f980004824200140798009e0290004406200034
:100fa800110009008482d80000027800044f7800fc
:100fb8009e4278000582fb000403b000040078001c
:100fc800ccff07001e4078008082fb00c4f92f0088
:100fd80004aab900040278009e029000048242002c
:100fe800140798009e029000a40020001100090038
:100ff8008482d80000027800044f78009e4278006e
:101008000582fb000403b00004007800b9ff070064
:101018001e4078008082fb0064ff2f0004aab900fc
:10102800040278009e02900004824200140798008f
:101038001e0290000403b00004007800adff070012
:10104800d0002000abff07000080fa000000060077
:101058000000fa00881f78000004780005003700b7
:10106800184278000402fb0004007800a1ff070082
:101078000804e80018427800e04f5200f8ff3a00f0
:10108800d00020009bff07004f0478000080fa0082
:10109800000006000000fa008cc0a90011e1a900b8
:1010a80084c0a9000080fa00000006000200fa00cf
:1010b800000f780084c0a9001e027800044278005e
:1010c8006742620067426200674262000482fb0076
:1010d800670262004822dd00b6048000f58f2f0009
:1010e8008502630004827200b40488009e027800be
:1010f800688262004322de00044278006142620096
:101108000482fb00610262004622dd006604800062
:10111800f5fb2f00850263000482720064048800d6
:101128000080fa00000006000400fa00000f7800b2
:10113800110798000002eb00340888001e02900096
:10114800640888001e027800840888001061a900dd
:101158000080fa00000006000000fa003408800051
:10116800040078000080fa00000006000200fa007f
:10117800000f78001e027800340888000080fa000a
:10118800000006000000fa00a1a2a90004158000d2
:101198000480a1000490a1000415880004158000b3
:1011a8000450a0000460a0000470a000041588008a
:1011b800a022a8001415800004d0a00004e0a0001c
:1011c80004f0a00014158800a342a800141580009c
:1011d8000420a1000430a1000440a1000450a10093
:1011e80014158800a222a900a202a90025158000d2
:1011f80004f021000482720024158800a4e2a800eb
:101208002515800004fc2f0004826200f401b3005d
:1012180024158800a782a900a682a9003415800099
:101228000400a1000410a1000420a1000430a100c2
:1012380034158800341580000480a1000490a100b2
:1012480004a0a10004b0a10034158800a822a900b8
:101258002400200054158800a042a8008560a8003a
:101268008d60a8000080fa00000006000000fa0067
:101278000002eb0004088800a40420001408880079
:101288000421a9008460a9008c60a80005e1a800d9
:081298000080fa0000000600ce
:020000040000fa
:1012a000000800001000000000000000100800000e
:1012b0000c00000002000000000000000000000020
:0c12c00000000000000000000000000022
:020000040000fa
:0200000401f009
:04000000e1bf00005c
:020000040000fa
:0200000401f009
:04000400ff7f00007a
:00000001FF
