:020000040000fa
:080000000001040000000000f3
:020000040000fa
:10000800be060000be060000be060000be060000d8
:10001800be060000be060000be060000be060000c8
:10002800be060000be060000be060000f401000087
:10003800be060000be060000dc010000be0600008f
:10004800be060000bc010000be060000be0600009f
:10005800be060000be060000be060000be06000088
:10006800be060000be060000be060000be06000078
:10007800be060000be060000be060000be06000068
:10008800be060000be060000be060000be06000058
:10009800be060000be060000be060000be06000048
:1000a800be060000be060000be060000be06000038
:1000b800be060000be060000be060000be06000028
:1000c800be060000be060000be060000be06000018
:1000d800be060000be060000be060000be06000008
:1000e800be060000be060000be060000be060000f8
:0800f800be060000be06000078
:020000040000fa
:10010800be060000be060000be060000be060000d7
:10011800be060000be060000be060000be060000c7
:10012800be060000be060000be060000f401000086
:10013800be060000be060000dc010000be0600008e
:10014800be060000bc010000be060000be0600009e
:10015800be060000be060000be060000be06000087
:10016800be060000be060000be060000be06000077
:10017800be060000be060000be060000be06000067
:10018800be060000be060000be060000be06000057
:10019800be060000be060000be060000be06000047
:1001a800be060000be060000be060000be06000037
:1001b800be060000be060000be060000be06000027
:1001c800be060000be060000be060000be06000017
:1001d800be060000be060000be060000be06000007
:1001e800be060000be060000be060000be060000f7
:0801f800be060000be06000077
:020000040000fa
:10020000cf8020000eff20000e01880000000000bb
:1002100000012000200288000c000700008420005c
:100220000100200011000700000020000000e00095
:100230000200320000000200000000004402020040
:10024000000000000040da000000fe004440a90069
:10025000000020000000e000030032000000200049
:10026000a00188004440a800000006009101880019
:10027000800078000000eb0015003700e2804000ad
:1002800032a0b4009101ba00e280400032a0b40074
:100290009102ba00e280400032a0b4000002eb00fc
:1002a000472bde00f507b200602ce10004003a00a5
:1002b0000059eb008301e900fdff3e000400370018
:1002c0006128e100010032000082eb000400070019
:1002d0001101ba000200e000e8ff3a000000060049
:1002e0003159ba008301e9000c0032002159ba00eb
:1002f0008301e900080032000400e00003003a0036
:10030000e280400032a0b400f5ff370011d9ba00f6
:100310008301e900faff3a008100e800e180400033
:1003200032a0b40000000600000000000000000041
:1003300000000000000000000000000000000000bd
:1003400000000000000000000000000000000000ad
:10035000000000000000000000000000000000009d
:10036000000000000000000000000000000000008d
:100370000000000000000000801f7800841f78004b
:100380003400f80000002000a00188000000fa00fe
:100390008520a90094108000044278000440780071
:1003a00000e8b7000080fa003400f9004f0278003e
:1003b0004f00780000400600841f78003400f800e9
:1003c00004002000a40188000000fa000002eb00f5
:1003d0003408880084c0a9000080fa003400f900c5
:1003e0004f027800004006003600f800809fbe00f3
:1003f000829fbe00849fbe00869fbe003400f8002e
:1004000000002000a00188000000fa000002eb00bc
:10041000040888008460a900046b20000400010027
:100420000080fa003400f9004f03be004f02be0006
:100430004f01be004f00be003600f900004006002c
:100440000000fa00e4012000640888003403200062
:10045000040c880034032000140c880064fc2d0078
:10046000240c8800f4012000640c88003403200070
:10047000740c880064fc2d00840c880011e1a80035
:100480000080fa00000006000000fa000002eb0005
:100490002440880003003700244080000402e80064
:1004a0002440880025408000f4702200848f520090
:1004b000f9ff3400de02a900d202a900d222a9006d
:1004c000d242a900a802a800a822a800a842a80019
:1004d000a862a800c602a900c622a900c642a900b7
:1004e000d302a900d622a80026020700d4ff0700e5
:1004f000d502070001003700000000000580200041
:100500009542780004c3b30084cf52004600320005
:100510000580200095427800e4c6b30084cf5200e5
:1005200041003200058020009542780024c7b300c6
:1005300084cf52003c0032000580200095427800b4
:1005400044c7b30084cf520037003200058020003a
:1005500095427800c4c6b30084cf52003200320006
:10056000058020009542780084c7b30084cf5200f4
:100570002d0032000580200095427800b4c6b300fb
:1005800084cf520028003200058020009542780078
:1005900084c6b30084cf52002300320005802000bf
:1005a0009542780054c7b30084cf52001e00320039
:1005b000058020009542780014c6b30084cf520015
:1005c00019003200058020009542780024c6b3004f
:1005d00084cf52001400320005802000954278003c
:1005e00034c6b30084cf52000f00320005802000d3
:1005f0009542780044c6b30084cf52000a0032000e
:10060000058020009542780054c6b30084cf520084
:1006100005003200058020009542780064c6b300d2
:1006200084cf520009003a00564080000480200028
:10063000144278001580200085024300844a780027
:10064000544080000402e800544088005440800078
:10065000e30f5200a8ff3a00108020006e00070050
:1006600000027800e00f5200020032000466200011
:1006700004000100108020007f00070000027800c5
:10068000e00f520004003200046620000400010064
:10069000c464200004000100108020008e000700c8
:1006a00000027800e00f52000400320004662000cf
:1006b0000400010064652000040001001080200097
:1006c0009d00070000027800e00f52000200320097
:1006d000246720000400010010802000ae00070005
:1006e00000027800e00f520004003200246720006e
:1006f00004000100c46420000400010010802000f8
:10070000bd00070000027800e00f52000400320034
:10071000246720000400010064652000040001003b
:1007200010802000cc00070000027800e00f52008b
:100730000200320044682000040001001080200004
:10074000f500070000027800e00f520002003200be
:10075000c46420000400010010802000d6000700bf
:1007600000027800e00f52000200320064652000b1
:100770000400010010802000ff0007000002780044
:10078000e00f520002003200c469200004000100a2
:10079000108020001001070000027800e00f5200d6
:1007a00002003200246920000400010010802000b3
:1007b0002101070000027800e00f52000200320021
:1007c000646a200004000100a43e2000040001002f
:1007d0004aff37000000fa000042eb0004407800b6
:1007e00001e8b7000042eb000440780002e8b700df
:1007f0000042eb000440780003e8b7000002eb0081
:10080000544088000042eb000440780000e8b70044
:100810000080fa00000006000200fa00000f7800d5
:100820001e02780094427800e4c6b30084cf5200e0
:100830000d003a001e02e80094427800e4c6b300be
:1008400084cf520008003a001e82e80094427800eb
:10085000e4c6b30084cf520003003a00ddff070076
:1008600014002000010037000002eb0004007800b3
:100870000080fa00000006000200fa00000f780075
:100880001e0278009442780014c6b30084cf520050
:100890000d003a001e02e8009442780014c6b3002e
:1008a00084cf520008003a001e82e800944278008b
:1008b00014c6b30084cf520003003a00c5ff0700fe
:1008c00014002000010037000002eb000400780053
:1008d0000080fa00000006000200fa00000f780015
:1008e0001e0278009442780024c6b30084cf5200e0
:1008f0000d003a001e02e8009442780024c6b300be
:1009000084cf520008003a001e82e800944278002a
:1009100024c6b30084cf520003003a00adff0700a5
:1009200014002000010037000002eb0004007800f2
:100930000080fa00000006000200fa00000f7800b4
:100940001e0278009442780024c7b30084cf52007e
:100950000d003a001e02e8009442780024c7b3005c
:1009600084cf520008003a001e82e80094427800ca
:1009700024c7b30084cf520003003a0095ff07005c
:1009800014002000010037000002eb000400780092
:100990000080fa00000006000200fa00000f780054
:1009a0001e0278009442780034c6b30084cf52000f
:1009b0000d003a001e02e8009442780034c6b300ed
:1009c00084cf520008003a001e82e800944278006a
:1009d00034c6b30084cf520003003a007dff070005
:1009e00014002000010037000002eb000400780032
:1009f0000080fa00000006000200fa00000f7800f4
:100a00001e0278009442780044c6b30084cf52009e
:100a10000d003a001e02e8009442780044c6b3007c
:100a200084cf520008003a001e82e8009442780009
:100a300044c6b30084cf520003003a0065ff0700ac
:100a400014002000010037000002eb0004007800d1
:100a50000080fa00000006000200fa00000f780093
:100a60001e0278009442780044c7b30084cf52003d
:100a70000d003a001e02e8009442780044c7b3001b
:100a800084cf520008003a001e82e80094427800a9
:100a900044c7b30084cf520003003a004dff070063
:100aa00014002000010037000002eb000400780071
:100ab0000080fa00000006000200fa00000f780033
:100ac0001e0278009442780084c7b30084cf52009d
:100ad0000d003a001e02e8009442780084c7b3007b
:100ae00084cf520008003a001e82e8009442780049
:100af00084c7b30084cf520003003a0035ff0700db
:100b000014002000010037000002eb000400780010
:100b10000080fa00000006000200fa00000f7800d2
:100b20001e02780094427800c4c6b30084cf5200fd
:100b30000d003a001e02e80094427800c4c6b300db
:100b400084cf520008003a001e82e80094427800e8
:100b5000c4c6b30084cf520003003a001dff070053
:100b600014002000010037000002eb0004007800b0
:100b70000080fa00000006000200fa00000f780072
:100b80001e02780094427800b4c6b30084cf5200ad
:100b90000d003a001e02e80094427800b4c6b3008b
:100ba00084cf520008003a001e82e8009442780088
:100bb000b4c6b30084cf520003003a0005ff07001b
:100bc00014002000010037000002eb000400780050
:100bd0000080fa00000006000200fa00000f780012
:100be0001e0278009442780084c6b30084cf52007d
:100bf0000d003a001e02e8009442780084c6b3005b
:100c000084cf520008003a001e82e8009442780027
:100c100084c6b30084cf520003003a00edfe070003
:100c200014002000010037000002eb0004007800ef
:100c30000080fa00000006000200fa00000f7800b1
:100c40001e0278009442780054c7b30084cf52004b
:100c50000d003a001e02e8009442780054c7b30029
:100c600084cf520008003a001e82e80094427800c7
:100c700054c7b30084cf520003003a00d5fe0700ea
:100c800014002000010037000002eb00040078008f
:100c90000080fa00000006000000fa00ca42a80026
:100ca000d702a9000080fa00000006000000fa0048
:100cb000ca42a900d702a8000080fa00000006007e
:100cc0000000fa00ca02a900ca22a900ca02a900ab
:100cd000ca22a80064012000040c88000080fa00e9
:100ce000000006000000fa00ca02a900ca22a900fa
:100cf000ca02a800ca22a90064012000040c8800ce
:100d00000080fa00000006000000fa00ca02a900f4
:100d1000ca22a80024032000040c88000080fa00e6
:100d2000000006000000fa0034032000640c880074
:100d30000080fa00000006000000fa0074002000a5
:100d4000640c88000080fa00000006000000fa0031
:100d50000002eb00640c88000080fa00000006002e
:100d60000000fa00ca02a900ca22a900ca42a900ca
:100d7000d702a9000080fa00000006000040da0057
:040d80000000fe0071
:020000040000fa
:100d84000000fa00f4172000a41088000d42a90006
:100d94008d20a80075108000c4ff2f00048262001b
:100da400741088000de2a8000f42a8000080fa0029
:100db400000006000200fa00000f780000000000a6
:100dc400751080000410200004826200e00f5200bd
:100dd400fbff32006410800066026200e60f5200de
:100de40003003a001e0278008410880003003700d4
:100df400f40f20001e026200841088000080fa00b4
:100e0400000006000400fa00100798009e029000fb
:100e1400843e2000110009008482d800000278007a
:100e2400044f78009e4278000582fb000403b00062
:100e340004007800dfff07001e4078008082fb007a
:100e440084c12f0004aab900040278009e02900015
:100e540004824200140798009e0290004406200079
:100e6400110009008482d80000027800044f780041
:100e74009e4278000582fb000403b0000400780061
:100e8400ccff07001e4078008082fb00c4f92f00cd
:100e940004aab900040278009e0290000482420071
:100ea400140798009e029000a4002000110009007d
:100eb4008482d80000027800044f78009e427800b3
:100ec4000582fb000403b00004007800b9ff0700aa
:100ed4001e4078008082fb0064ff2f0004aab90042
:100ee400040278009e0290000482420014079800d5
:100ef4001e0290000403b00004007800adff070058
:100f0400d0002000abff07000080fa0000000600bc
:100f14000000fa00881f78000004780005003700fc
:100f2400184278000402fb0004007800a1ff0700c7
:100f34000804e80018427800e04f5200f8ff3a0035
:100f4400d00020009bff07004f0478000080fa00c7
:100f5400000006000000fa008cc0a90011e1a900fd
:100f640084c0a9000080fa00000006000200fa0014
:100f7400000f780084c0a9001e02780004427800a3
:100f84006742620067426200674262000482fb00bb
:100f9400670262004822dd00b6048000f58f2f004e
:100fa4008502630004827200b40488009e02780003
:100fb400688262004322de000442780061426200db
:100fc4000482fb00610262004622dd0066048000a8
:100fd400f5fb2f008502630004827200640488001c
:100fe4000080fa00000006000400fa00000f7800f8
:100ff400110798000002eb00340888001e029000dc
:10100400640888001e027800840888001061a90022
:101014000080fa00000006000000fa003408800096
:10102400040078000080fa00000006000200fa00c4
:10103400000f78001e027800340888000080fa004f
:10104400000006000000fa000002eb00040888001b
:1010540004e22400140888000421a9000481a800e3
:1010640004a1a8000441a9008460a9008c60a80020
:0c10740005e1a8000080fa000000060062
:020000040000fa
:10108000000800000a000000000000000a0800003c
:10109000020000000200000000000000000000004c
:020000040000fa
:0200000401f009
:04000000e1bf00005c
:020000040000fa
:0200000401f009
:04000400ff7f00007a
:00000001FF
