:020000040000fa
:080000000001040000000000f3
:020000040000fa
:100008009401000094010000940100009401000094
:100018009401000094010000940100009401000084
:100028009401000094010000940100009401000074
:1000380094010000940100004a1900009401000096
:1000480094010000e41700009401000082180000e9
:100058009401000094010000940100009401000044
:100068006819000094010000940100009401000048
:100078009401000094010000940100009401000024
:100088009401000094010000940100009401000014
:100098009401000094010000940100009401000004
:1000a80094010000940100009401000094010000f4
:1000b80094010000940100009401000094010000e4
:1000c80094010000940100009401000094010000d4
:1000d80094010000940100009401000094010000c4
:1000e80094010000940100009401000094010000b4
:0800f8009401000094010000d6
:020000040000fa
:100108009401000094010000940100009401000093
:100118009401000094010000940100009401000083
:100128009401000094010000940100009401000073
:1001380094010000940100004a1900009401000095
:1001480094010000e41700009401000082180000e8
:100158009401000094010000940100009401000043
:100168006819000094010000940100009401000047
:100178009401000094010000940100009401000023
:100188009401000094010000940100009401000013
:100198009401000094010000940100009401000003
:1001a80094010000940100009401000094010000f3
:1001b80094010000940100009401000094010000e3
:1001c80094010000940100009401000094010000d3
:1001d80094010000940100009401000094010000c3
:1001e80094010000940100009401000094010000b3
:0801f8009401000094010000d5
:020000040000fa
:100200002f8320000eff20000e0188000000000058
:1002100000012000200288000c000700e0e8210017
:100220000100200011000700000020000000e00095
:10023000020032000000020000000000d21a02009a
:10024000000000000040da000000fe004440a90069
:10025000a0ac20000000e0000300320000002000fd
:10026000a00188004440a800000006009101880019
:10027000800078000000eb0015003700e2804000ad
:1002800032a0b4009101ba00e280400032a0b40074
:100290009102ba00e280400032a0b4000002eb00fc
:1002a000472bde00f507b200602ce10004003a00a5
:1002b0000059eb008301e900fdff3e000400370018
:1002c0006128e100010032000082eb000400070019
:1002d0001101ba000200e000e8ff3a000000060049
:1002e0003159ba008301e9000c0032002159ba00eb
:1002f0008301e900080032000400e00003003a0036
:10030000e280400032a0b400f5ff370011d9ba00f6
:100310008301e900faff3a008100e800e180400033
:1003200032a0b400000006000040da000000fe0029
:10033000889fbe008a9fbe008c1f7800990007002e
:10034000a000330003866c006450e1002e003200f0
:100350006420e100330032006150e1002f003200e0
:100360006120e1003100320085855500eb07b000c7
:10037000090020000804200005003700080444009c
:1003800089844c000a0031000603430087834b0038
:100390000001530081815b00f8ff33000203be00bf
:1003a0000800a0000804440089844c00f6ff3900ce
:1003b000c639dd0083017300010032001300200004
:1003c0008904d1000884d3000998a30005003200f5
:1003d0000800a7000300a0008904d1000884d3000e
:1003e0008b05e8008904d1000884d3000001eb00ec
:1003f0000281d2003000070001f0a1000cf0a7003c
:1004000001f0a000780037006420e1007a0032009b
:100410000801be000200be00f7ff37006120e100c6
:10042000750032006000b800f3ff370000002000c4
:1004300001f82700f0ff37000001be00440007006c
:100440000470a70003f0a10003f8a30013003a0012
:100450006509b10010003200090035006928e1008b
:1004600002003500010028000000050000004000e7
:10047000818048008502e900fcff3a000000060088
:10048000f88f4200050035008100d1000080d300c4
:100490008502e800fcff3a00000006008000eb0047
:1004a000000005004f89de008201780089003700d6
:1004b0006011b8009700370081002000618055006e
:1004c0000b003d000b00200061fe2f000100e10049
:1004d0001d00340082817100610164008904d10033
:1004e0000884d3000000e800faff3a007100200001
:1004f0006100640003007000020060000900320027
:1005000061044400e0844c000988a5000500320025
:100510008b05e8006808e10002003a008904d10078
:100520000884d300f20f20000258e10005003d00ce
:10053000c75ddd00f907b20089807500080078000a
:10054000000006000bf827008b0078000000050073
:10055000c70ade00f107b200f50fb2000800320052
:10056000e1cf4200020032000170a000240005002b
:10057000810f7000010032000408050044000500ee
:10058000810f700002003a00140005008502e900a6
:100590000000400081c04800fcff3b000170a0004b
:1005a000240005000004be00e9ff07000003be00b0
:1005b0000405be000200be00e5ff0700844f750081
:1005c000000006000200be006450e1000500360095
:1005d0006420e100020036000968a30001003a002f
:1005e0000800be000160a0004f0678004f05be0065
:1005f0004f04be0000000600f0ff2f00f1ff2700af
:10060000f9ff3700889fbe008a9fbe008c1f7800cc
:10061000e4ff0700ebff330003866c006450e10049
:10062000240032006420e100270032006150e10024
:10063000220032006120e100210032008b8542005f
:10064000eb07b1000134b800003ab80008044200da
:1006500089844a00013ab8000030b8008880400020
:1006600009014a0004003300000040008180480076
:10067000020149008b05e900c909dd008301700012
:100680000100320013002000c814de004814dd0011
:100690004709de001200b200c808de0008847000be
:1006a00085ff070001f0a1000cf0a70001f0a000f9
:1006b000cdff37006120e100cfff32000801be000e
:1006c0000200be00f7ff37006150e100fcff3a0076
:1006d000c9ff3700881f7800030478000300e0009a
:1006e00007003d0060001000e08018006001190064
:1006f000e081190002003b0001f02d0003003700eb
:100700000400070008f0a70001f0a0004f047800e3
:1007100000000600889fbe008a9fbe000082700015
:100720000402710004827100260032000004be0041
:100730000200be006011b8006b0920009502200085
:100740000182cf000a0039000541b1000082cf00cc
:10075000070039000541b1000982cf0004003900cb
:100760000541b1000882cf00010039000541b10008
:1007700005425200120032000a003b0082817100e3
:10078000610164008100d1000080d3008984d3001e
:100790000884d3008b05e8000442e800f7ff3a0024
:1007a000070037000804440089844c00000048001a
:1007b000818048008b05e9000442e900f9ff3a0016
:1007c0003dff07004f05be004f04be0000000600bd
:020000040000fa
:1007d0000000000000000000000000000000000019
:1007e0000000000000000000000000000000000009
:1007f000000000003eff0000ff3e0000000000007f
:1008000000000000000d00000d00000000000000ce
:1008100000040000070300000004000007030000bc
:1008200000000000000000000000000000000000c8
:1008300010fe0000fe10000010fe0000fe10000080
:10084000010f00000f010000010f00000f01000068
:100850001c3e000022ff0000ff420000ce8c000082
:1008600003070000040f00000f040000070300004e
:100870000000000006c60000f03c00000e02000070
:10088000000400000703000000060000060000004e
:100890001e3f0000e1c10000412100003f1e00009a
:1008a000060f0000090900000b0c00001e160000d6
:1008b000000000000407000003000000000000002a
:1008c0000000000000000000000000000000000028
:1008d00000000000f8fe000007010000000000001a
:1008e00000000000000700000e08000000000000eb
:1008f0000000000001070000fef8000000000000fa
:1009000000000000080e00000701000000000000c9
:1009100020a80000f870000070f80000a820000077
:1009200000000000000000000000000000000000c7
:100930002020000020fc0000fc20000020200000ff
:1009400000000000000100000100000000000000a5
:100950000000000000000000000000000000000097
:1009600000000000203c00001c000000000000000f
:100970002020000020200000202000002020000077
:100980000000000000000000000000000000000067
:100990000000000000000000000000000000000057
:1009a00000000000000c00000c000000000000002f
:1009b0000000000000c00000f03c00000f03000039
:1009c000000c00000f030000000000000000000009
:1009d000feff00000101000001010000fffe000019
:1009e000070f000008080000080800000f070000bb
:1009f0000004000006ff0000ff00000000000000ef
:100a000000080000080f00000f08000008000000a8
:100a10000203000081c10000613100001f0e0000d0
:100a20000e0f00000908000008080000080c000074
:100a3000020300000121000021210000ffde000070
:100a4000040c000008080000080800000f07000060
:100a5000e0f00000988c000086ff0000ff0000001e
:100a60000000000000000000080f00000f08000058
:100a70003f3f00002121000021210000e1c10000d2
:100a8000040c000008080000080800000f07000020
:100a9000fcfe00002321000021210000e0c0000036
:100aa000070f000008080000080800000f070000fa
:100ab0000303000001810000e17900001f0700002e
:100ac00000000000000f00000f0000000000000008
:100ad000deff00002121000021210000ffde0000d8
:100ae000070f000008080000080800000f070000ba
:100af0001e3f00002121000021210000fffe000018
:100b00000008000008080000080c000007030000af
:100b100000000000001800001800000000000000a5
:100b200000000000000600000600000000000000b9
:100b30000000000000180000180000000000000085
:100b400000000000101e00000e0000000000000069
:100b500040e00000b01800000c0600000200000099
:100b60000000000001030000060c00000800000067
:100b700000a00000a0a00000a0a00000a0000000b5
:100b80000000000000000000000000000000000065
:100b900000020000060c000018b00000e040000059
:100ba000000800000c060000030100000000000027
:100bb0000203000001c10000e13100001f0e00002f
:100bc00000000000000d00000d000000000000000b
:100bd0000203000001c10000e13100001f0e00000f
:100be00000000000000d00000d00000000000000eb
:100bf000f8fc00008683000083860000fcf80000fb
:100c00000f0f000000000000000000000f0f0000a8
:100c1000ffff00002121000021210000ffde000075
:100c20000f0f000008080000080800000f07000070
:100c3000fcfe0000030100000101000003060000ab
:100c4000030700000c080000080800000c06000064
:100c500001ff0000ff01000001030000fefc000096
:100c6000080f00000f080000080c00000703000038
:100c700001ff0000ff2100002171000003030000bc
:100c8000080f00000f080000080800000c0c00000e
:100c900001ff0000ff21000021710000030300009c
:100ca000080f00000f080000000000000000000016
:100cb000fcfe00000301000041410000c3c600002b
:100cc000030700000c08000008080000070f0000e0
:100cd000ffff00002020000020200000ffff000098
:100ce0000f0f000000000000000000000f0f0000c8
:100cf0000001000001ff0000ff01000001000000f2
:100d000000080000080f00000f08000008000000a5
:100d1000000000000000000001ff0000ff010000d3
:100d2000060e000008080000080f00000700000081
:100d300001ff0000ff700000d88c000007030000d6
:100d4000080f00000f000000000100000f0e00005f
:100d500001ff0000ff010000000000000000000093
:100d6000080f00000f080000080800000c0c00002d
:100d7000ffff00000c780000780c0000ffff00006f
:100d80000f0f000000000000000000000f0f000027
:100d9000ffff00001c38000070e00000ffff0000b3
:100da0000f0f000000000000000000000f0f000007
:100db000feff00000101000001010000fffe000035
:100dc000070f000008080000080800000f070000d7
:100dd00001ff0000ff210000212100003f1e000054
:100de000080f00000f0800000000000000000000d5
:100df000feff00000101000001010000fffe0000f5
:100e0000070f0000080e00001c3800002f0700002c
:100e100001ff0000ff21000021610000ff9e000093
:100e2000080f00000f080000000000000f0f000076
:100e30000e1f00003121000021610000c786000064
:100e4000060e000008080000080800000f07000058
:100e50000303000001ff0000ff0100000303000086
:100e600000000000080f00000f0800000000000054
:100e7000ffff00000000000000000000ffff000076
:100e8000070f000008080000080800000f07000016
:100e9000ffff00000000000000000000ffff000056
:100ea00001030000060c00000c0600000301000016
:100eb000ffff000000e00000e0000000ffff000076
:100ec000010f00000e030000030e00000f010000e0
:100ed000070f000098f00000f09800000f070000d6
:100ee0000e0f000001000000000100000f0e0000c6
:100ef0000f1f000030e00000e03000001f0f000076
:100f000000000000080f00000f08000000000000b3
:100f100003830000c1610000311900000f070000c9
:100f20000f0f000008080000080800000c0c00006b
:100f300000000000ffff00000101000000000000b1
:100f4000000000000f0f0000080800000000000073
:100f500055aa000055aa000055aa000055aa000095
:100f600055aa000055aa000055aa000055aa000085
:100f70000000000001010000ffff00000000000071
:100f800000000000080800000f0f00000000000033
:100f9000080c000006030000030600000c08000017
:100fa0000000000000000000000000000000000041
:100fb0000000000000000000000000000000000031
:100fc00010100000101000001010000010100000a1
:100fd00000000000080f00000700000000000000f3
:100fe0000000000000000000000000000000000001
:100ff000009000009090000090f00000e0000000e1
:10100000070f000008080000080700000f08000094
:1010100001ff0000ff10000010300000e0c00000e1
:10102000080f000007080000080800000f07000074
:10103000e0f0000010100000101000003020000050
:10104000070f000008080000080800000c0400005a
:10105000c0e000003010000011ff0000ff000000a1
:10106000070f000008080000080700000f08000034
:10107000e0f000009090000090900000f0e0000090
:10108000070f000008080000080800000c0400001a
:1010900000100000feff000011110000030200001c
:1010a000000800000f0f0000080000000000000012
:1010b000e0f000001010000010e00000f010000050
:1010c000276f000048480000487f00003f000000f4
:1010d00001ff0000ff20000010100000f0e0000001
:1010e000080f00000f000000000000000f0f0000bc
:1010f0000010000010f60000f600000000000000e4
:1011000000080000080f00000f08000008000000a1
:101110000000000010100000f6f6000000000000c3
:1011200030600000404000007f3f000000000000f1
:1011300001ff0000ffc00000c06000003010000090
:10114000080f00000f000000010300000e0c00005b
:101150000001000001ff0000ff000000000000008f
:1011600000080000080f00000f0800000800000041
:10117000f0f0000030e00000e0300000f0e000009f
:101180000f0f000000070000070000000f0f000015
:1011900010f00000e010000010100000f0e000006f
:1011a000000f00000f000000000000000f0f000003
:1011b000e0f000001010000010100000f0e000004f
:1011c000070f000008080000080800000f070000d3
:1011d00010f00000e010000010100000f0e000002f
:1011e000407f00007f480000080800000f07000053
:1011f000e0f000001010000010e00000f01000000f
:10120000070f000008080000487f00007f40000032
:1012100010f00000e010000010100000302000006e
:10122000000f00000f0000000000000000000000a0
:1012300060f000009090000090100000302000004e
:10124000040c000008080000090900000f06000057
:1012500010100000feff0000101000000000000051
:1012600000000000070f0000080c00000400000050
:10127000f0f000000000000000f00000f0000000ae
:10128000070f000008080000080700000f08000012
:10129000f0f000000000000000000000f0f000008e
:1012a00001030000060c00000c0600000301000012
:1012b000f0f000000080000080000000f0f000006e
:1012c000070f00000c070000070c00000f070000cc
:1012d0001030000060c00000c0600000301000004e
:1012e000080c000006030000030600000c080000c4
:1012f000f0f000000000000000000000f0f000002e
:10130000474f000048480000486800003f1f0000a9
:101310003030000010900000d0700000301000004d
:101320000c0e00000b090000080800000c0c000067
:10133000000000000000000000000000005f00004e
:10134000000000000007000000070000001400007b
:101350007f1400007f140000242a00007f2a000070
:1013600012230000130800006462000036490000e8
:10137000552200005000000005030000000000009e
:10138000001c00002241000000000000412200007b
:101390001c000000082a00001c2a000008080000a9
:1013a000083e000008080000005000003000000067
:1013b00000080000080800000808000000300000d5
:1013c00030000000002000001008000004020000af
:1013d0003e510000494500003e000000427f0000f1
:1013e0004000000042610000514900004621000019
:1013f000414500004b31000018140000127f00002e
:101400001027000045450000453900003c4a000017
:101410004949000030010000710900000503000087
:1014200036490000494900003606000049490000dd
:10143000291e0000003600003600000000000000f9
:1014400056360000000000000008000014220000d2
:101450004114000014140000141400004122000084
:1014600014080000000200000151000009060000fd
:1014700032490000794100003e7e00001111000059
:10148000117e00007f49000049490000363e0000ff
:1014900041410000412200007f4100004122000044
:1014a0001c7f000049490000494100007f090000fd
:1014b00009010000013e00004141000051320000de
:1014c0007f080000080800007f000000417f000046
:1014d0004100000020400000413f0000017f00006b
:1014e00008140000224100007f400000404000003e
:1014f000407f000002040000027f00007f04000023
:10150000081000007f3e000041410000413e000005
:101510007f09000009090000063e0000415100005b
:10152000215e00007f0900001929000046460000e6
:101530004949000049310000010100007f0100001d
:10154000013f000040400000403f00001f2000001d
:10155000402000001f7f000020180000207f0000b6
:101560006314000008140000630300000478000006
:1015700004030000615100004945000043000000e1
:10158000007f00004141000002040000081000003c
:1015900020410000417f0000000000000402000024
:1015a00001020000044000004040000040400000f4
:1015b000000100000204000000200000545400005c
:1015c000547800007f480000444400003838000090
:1015d0004444000044200000384400004448000017
:1015e0007f3800005454000054180000087e0000aa
:1015f000090100000208000014540000543c0000df
:101600007f0800000404000078000000447d000012
:101610004000000020400000443d000000000000a9
:101620007f10000028440000004100007f400000bf
:10163000007c000004180000047800007c08000012
:1016400004040000783800004444000044380000de
:101650007c1400001414000008080000141400009a
:10166000187c00007c08000004040000084800000a
:101670005454000054200000043f00004440000087
:10168000203c000040400000207c00001c200000a6
:10169000402000001c3c000040300000403c0000a6
:1016a0004428000010280000440c000050500000a6
:1016b000503c000044640000544c00004400000012
:1016c0000836000041000000000000007f0000001c
:1016d000000000004136000008000000080800007b
:1016e0002a1c0000080800001c2a0000080800004e
:1016f00000000000000000000000000000000000ea
:1017000000000000000000000000000000000000d9
:1017100000000000000000000000000000000000c9
:1017200000000000000000000000000000000000b9
:101b3000554b000055430000414e0000412000007d
:101b40004a450000205000004f4700005245000069
:101b5000534e0000412000004c4f00005a49000045
:101b60004e4b00004120000054520000492000006c
:101b70005055000054410000004900005a44000044
:101b8000414a0000412000004e410000524f000039
:101b900044450000005000004f5a00004152000030
:101ba00020550000204b0000554300004900000074
:101bb000504f00005a410000522000004e410000ea
:101bc000524f000044450000005000004f500000fc
:101bd0004c4100005641000020550000204b000001
:101be0005543000049000000504f0000504c0000d9
:101bf00041560000412000004e410000524f0000bd
:101c000044450000004e0000454b00004f200000fe
:101c10004a45000020500000524f0000564100008d
:101c20004c4900004f200000552000004b5500009b
:101c30004355000000500000524f00005641000084
:101c40004c410000204e0000415200004f44000073
:101c50004500000041000000420000004300000079
:101c600044000000504900004e3a000000500000bf
:101c7000494e00003a2a000000500000494e000082
:101c80003a2a00002a000000504900004e3a0000a5
:101c90002a2a00002a000000504900004e3a0000a5
:101ca0002a2a00002a2a0000004f0000544b00009e
:101cb0004c4a000055430000414e00004f00000018
:101cc0004e4500004b4f0000204a00004520000018
:101cd00055530000414f000020550000204b0000ec
:101ce00055430000550000004752000045530000d6
:101cf0004b410000004e0000454b00004f2000000b
:101d00004a450000205500004b55000043410000ab
:101d10004f200000504f0000475200004553000084
:101d20004e550000204c00004f5a0000494e000064
:101d30004b550000004e0000454b00004f200000b6
:101d40004a450000204900005a410000534100006c
:101d50004f200000495a0000204b0000554300006e
:041d6000450000003a
:020000040000fa
:101d64000200fa00004f78001e427800e04f520053
:101d7400050032001517800004022000048272005e
:101d8400141788000400370015178000f4fd2f0095
:101d940004826200141788000080fa000000060024
:101da4000200fa00004f78001e427800e04f520013
:101db40004003200141780000440a00014178800a7
:101dc4000400370015178000f4fe2f00048262001f
:101dd400141788000080fa00000006000200fa00d0
:101de400004f78001e427800e04f52000400320099
:101df400141780000410a000141788000400370092
:101e040015178000d4ff2f00048262001417880085
:101e14000080fa00000006000200fa00004f78007b
:101e24001e427800e04f5200040032001417800074
:101e34000400a00014178800040037001517800060
:101e4400e4ff2f0004826200141788000080fa0067
:101e5400000006000200fa00004f78001e427800dd
:101e6400e04f5200050032005516800004022000a5
:101e7400048272005416880004003700551680004e
:101e8400f4fd2f0004826200541688000080fa00da
:101e9400000006000200fa00004f78001e4278009d
:101ea400e04f520004003200541680000440a000a9
:101eb400541688000400370055168000f4fe2f00e5
:101ec40004826200541688000080fa0000000600b4
:101ed4000000fa00dea2a900de82a900de22a90029
:101ee400de02a900a8a2a800c6a2a900a882a80090
:101ef400c682a900a802a800c602a900a822a800b8
:101f0400c622a900a842a800c642a900a862a80047
:101f1400c662a900d202a900d222a900d242a90015
:101f2400d262a9000080fa00000006000200fa0054
:101f3400004f78001e427800e04f520008003a003b
:101f4400d202a900d222a900d242a900d262a900d9
:101f5400c662a900c642a900c622a900c602a900f9
:101f64001e427800e14f520008003a00d202a80055
:101f7400d222a800d242a800d262a800c662a80059
:101f8400c642a800c622a800c602a8000080fa0023
:101f9400000006000400fa00204798002e4290003a
:101fa400044f7800b516800004ff2f0004826200fd
:101fb400b41688005516800004ff2f0004826200c6
:101fc400541688009e4278006fc26200144798003d
:101fd4001e4290008482fb0054168000048272002a
:101fe400541688009e4278000582fb004422de00dd
:101ff400044f78001e4278008482fb00b4168000ef
:1020040004827200b41688000080fa000000060002
:102014000200fa00a4168000044f78001e427800e3
:10202400450020000522dd00044f7800441680009e
:10203400144798001e4290006f42620014479800b3
:102044001e4290001e424200144798001e42900017
:10205400044078000080fa00000006000000fa0046
:1020640010c0b3004eff07000040eb004cff070018
:102074000080fa00000006000200fa00004f780019
:102084000040eb0064ff07000040eb0053ff070033
:102094001e407800bfff0700f0ff07000080fa0031
:1020a400000006000400fa00100798000002eb008c
:1020b400040f7800010037001e0fe8001e02900094
:1020c4009e027800848f5200fbff39000080fa00e2
:1020d400000006000200fa000040eb004eff07007b
:1020e40010c0b3003dff070010c0b3008fff07000e
:1020f40010c0b3002aff0700c5ff070000427800a4
:10210400044f78000040eb0025ff07000300370070
:10211400bfff070000427800044f78001e42780099
:10212400e04f5200faff35000080fa00000006007c
:102134000200fa00004f7800f4c3b3009e42780016
:1021440084cf52000a003e0010c0b30039000700db
:1021540004c4b3001e42720004407800c6ff0700a6
:1021640014c0b3000440780030e8b7000f00370013
:102174001e427800e04f52000c0035000040eb0096
:102184002c00070004ccb3001e42420084427800b5
:1021940004c4b30004c2720004407800b6ff070010
:1021a4000042eb000440780030e8b7001e4078009d
:1021b4002ee8b7000080fa00000006000200fa00d2
:1021c400004f78001e427800e74f520006003e00a0
:1021d40084cbb3001e42720004407800a6ff0700bf
:1021e4001e4078002fe8b7000080fa0000000600c7
:1021f4000200fa00004f7800114798001e40780052
:10220400cbff07001e409000ecff07000080fa009f
:10221400000006000200fa00004f780004ccb3006e
:102224001e4272000440780093ff07000080fa0009
:10223400000006000200fa00004f78000040eb00a6
:10224400f5fe07001e427800e04f52000c003a00f1
:102254000040eb00e1fe070010c0b3000dff0700d3
:102264000040eb00fbfe0700f0c3b30082ff070051
:102274000042eb000440780030e8b7000b00370060
:102284000040eb00d5fe07000040eb0001ff070013
:1022940010c0b300effe0700f0c3b30076ff0700e1
:1022a40014c0b3000440780030e8b7000080fa009e
:1022b400000006000200fa0010c0b3001bff070074
:1022c40010c0b300d4fe070010c0b300c3fe070063
:1022d40062ff070010c0b300b1fe07004cff070007
:1022e40000427800044f78000040eb00acfe070089
:1022f4000040eb000dff07000040eb00c6fe0700a6
:102304000040eb00b5fe07001e4278000440780050
:102314000080fa00000006000000fa000040eb0014
:102324001cff07000040eb00bbfe07000040eb0071
:10233400aafe07000040eb0099fe07000040eb00f6
:10234400d4fe07000040eb00c2fe070010c0b3003b
:1023540083fe0700a000200052ff07000040eb00ae
:102364007ffe0700a00020004eff070010c0b3004e
:102374007bfe070010c0b300aeff0700e0c3b3004c
:102384003dff070000ccb3003bff070080cbb30048
:1023940039ff070000c4b30037ff0700f0c3b300e0
:1023a40035ff07000040eb00a2ff0700e0c3b300c5
:1023b40031ff070000ccb3002fff070080cbb30030
:1023c4002dff070000c4b3002bff0700f0c3b300c8
:1023d40029ff07000080fa00000006000200fa004e
:1023e400004f780010c0b3008bfe07000040eb00e4
:1023f4007afe07001e407800e6fe070017ff07007c
:102404000080fa00000006000200fa000042eb001f
:10241400144798001d0037009e4090000040eb00d8
:1024240073ff07000042eb00044f780003003700fd
:102434000040eb00e9ff07001e4fe800f4c3b300bf
:102444009e42780084cf5200f9ff36009e409000ef
:1024540000c4b30066ff07000042eb00044f78009d
:10246400030037000040eb00dcff07001e4fe800cc
:10247400f4c3b3009e42780084cf5200f9ff3600c3
:102484001e4290000442e800144798001e42900047
:10249400e74f5200e0ff36000080fa00000006001b
:1024a4000200fa000042eb00144798001d003700b8
:1024b4009e4090000040eb004dff07000042eb00ff
:1024c400044f78000300370000c0eb00c3ff07008f
:1024d4001e4fe800f4c3b3009e42780084cf52003c
:1024e400f9ff36009e40900000c4b30040ff07008f
:1024f4000042eb00044f78000300370000c0eb00fb
:10250400b6ff07001e4fe800f4c3b3009e427800f4
:1025140084cf5200f9ff36001e4290000442e800c6
:10252400144798001e429000e74f5200e0ff360027
:102534000080fa00000006000400fa00100798006a
:102544000042eb0014479800300037009e40900092
:102554000040eb0026ff07000042eb00044f780028
:102564000c0037001e4290000482fb00c722dd00ed
:102574001e4378000682fb00048242009e02900003
:1025840004824200144278000440780093ff07005c
:102594001e4fe800f4c3b3009e42780084cf52007b
:1025a400f0ff36009e40900000c4b30010ff070007
:1025b4000042eb00044f78000d0037001e429000eb
:1025c4000482fb00c722dd001e4378000682fb0064
:1025d400048242000404b0009e029000048242007f
:1025e40014427800044078007cff07001e4fe80086
:1025f400f4c3b3009e42780084cf5200efff36004c
:102604001e4290000442e800144798001e429000c5
:10261400e74f5200cdff36000080fa0000000600ac
:102624000400fa0020479800314798000042eb006c
:10263400044f78003e4290000482fb004322de00f7
:1026440004427800844078002e409000e8fe0700a1
:1026540018ff070000427800044f78003e429000c3
:102664000482fb004322de000442780084407800a8
:102674002e409000defe07003e4290000482fb00e4
:102684006702620015002000042add0084427800fd
:102694001e42780004c27200044078004fff070015
:1026a4000080fa00000006000400fa0020479800a9
:1026b400314798000042eb00044f78003e429000fe
:1026c4000482fb004322de00044278008440780048
:1026d4002e409000c6fe0700f6fe07000042780078
:1026e400044f78003e4290000482fb004322de0047
:1026f40004427800844078002e409000bcfe07001d
:102704003e4290000482fb00670262001500200034
:10271400042add000442780084c2ea001e427800e4
:1027240004c26200044078002cff07000080fa0015
:10273400000006000c00fa00004f9800114f9800aa
:10274400224f98000002eb00040f78000002eb0017
:10275400140798000002eb00240798009e4a90009a
:102764000e4a900004c25200644798002e4a90001a
:102774000482fb00140798002e4a90008482fb0018
:10278400e4ff2f0004aab90004027800630f42009a
:10279400740037001e029000844278001e4a9000a4
:1027a40084c242002e029000044378000e4a900036
:1027b40004424300854078000440780098ff0700f5
:1027c4001e029000044278009e4a900084c2520087
:1027d4002e029000044378000e4a90000442430005
:1027e40085407800044078008dff07001e029000a9
:1027f400844278001e4a900084c242002e02900057
:10280400044278000e4b9000044253008540780047
:102814000440780082ff07001e0290000442780002
:102824009e4a900084c252002e0290000442780016
:102834000e4b900004425300854078000440780019
:1028440077ff07002e029000844278001e4a900011
:1028540084c242001e029000044378001e4a900085
:10286400044343006e4290000442530085407800c4
:10287400044078006aff07002e02900004427800aa
:102884009e4a900084c252001e02900004437800c5
:102894001e4a9000044343006e42900004425300d9
:1028a40085407800044078005dff07002e02900008
:1028b400844278001e4a900084c242001e029000a6
:1028c400044278001e4b9000044353006e42900073
:1028d40004425300854078000440780050ff07000c
:1028e4002e029000044278009e4a900084c2520056
:1028f4001e029000044278001e4b900004435300d3
:102904006e429000044253008540780004407800f1
:1029140043ff07001e027800e00f520005003d004f
:102924002e0290004222dd00660242001e0f420089
:1029340009003700ae0290001e029000048252008b
:102944004222dd006a0242001e0f42001e02900075
:102954000402e900140798002e0290000402e80023
:1029640024079800ae0290001e029000848f52004b
:1029740088ff34000080fa00000006000600fa0018
:1029840020479800314798004247980053479800e1
:102994000042eb00044f78000042eb00044f780043
:1029a4000b0037002e4290001e424200be409000b1
:1029b400044078001aff07002e4290001e42420095
:1029c400de4090000440780015ff07001e4fe80029
:1029d4001e4278008482fb004e4290000483fb0078
:1029e4002e4290000482fb00040253000402e8001b
:1029f400848f5200ebff35000042eb00044f780057
:102a04000b0037003e4290001e4242008440780092
:102a14002e40900002ff07003e4290001e424200fa
:102a2400844078004e409000fdfe07001e4fe800f1
:102a34001e4278008482fb005e4290000483fb0007
:102a44003e4290000482fb00040253000402e800aa
:102a5400848f5200ebff35000080fa00000006006e
:102a64000400fa0020479800e48220001442780011
:102a74000482fb00e5024200f4072000848f520028
:102a84000f003400f4822000144278000442e8006d
:102a9400044078002fe8b700f48220001442780044
:102aa400e74f5200030036000042eb000440780078
:102ab4002fe8b7000042eb00044078002ee8b7008e
:102ac400f582200095427800e482200014427800c8
:102ad4008540780004407800c5fd07000042eb0003
:102ae400044f78001a0037002e4290000402fb00c5
:102af4006522b9000402780005f62f0084824200a2
:102b04001e4378000682fb00048242008599280057
:102b140065427a000440780030fe0700e482200019
:102b2400144278000442e800044078002ee8b7001c
:102b3400f582200095427800e48220001442780057
:102b44008540780004407800a9fd07001e4fe80086
:102b54001e427800e44f5200e3ff36000040eb00d1
:102b64001efe0700e4822000144278000442e800bc
:102b7400044078002ee8b7000080fa000000060048
:102b84000400fa0020479800e482200014427800f0
:102b94000482fb00e8024200f4072000848f520004
:102ba40014003400f4822000144278000442e80047
:102bb400044078002fe8b700f48220001442780023
:102bc4000442e800044078002fe8b700f4822000b3
:102bd40014427800e74f5200030036000042eb0035
:102be400044078002fe8b7000042eb00044078006e
:102bf4002ee8b7000042eb00044f7800560037007f
:102c0400f582200095427800e48220001442780086
:102c1400854078000440780075fd07002e4290003e
:102c24000402fb000402b100c422dd001e4378004c
:102c34000682fb0004824200853e280065427a0039
:102c440004407800e5fd0700f48220001442780077
:102c54000442e8008442780084cbb30004c27200ca
:102c64000440780004fd0700e582200095427800c6
:102c7400f4c3b30084cf52000c003e0010c0b30074
:102c84006cfd0700e58220009542780004c4b3007f
:102c940004c2720004407800f7fc070014c0b300bb
:102ca4000440780030e8b70012003700e4822000c6
:102cb40014427800e04f52000e0035000040eb0053
:102cc4005cfd0700e58220009542780004ccb30047
:102cd40004c242008442780004c4b30004c27200f7
:102ce40004407800e4fc07000042eb000440780054
:102cf40030e8b7002e4290000402fb000402b10049
:102d0400c422dd001e4378000682fb0004824200d8
:102d140068024200853e280065427a00044078003b
:102d2400aefd0700e4822000144278000442e8006b
:102d3400044078002ee8b700f58220009542780020
:102d4400e482200014427800854078000440780032
:102d540027fd07001e4fe8001e427800e74f52008f
:102d6400a7ff36000080fa00000006000200fa0007
:102d7400000f7800050037001e0278001442780026
:102d84000440780036ff07001e0fe8001e0278009a
:102d940014427800e04f5200f7ff3a000080fa0036
:102da400000006000600fa00404798004e429000da
:102db4000482fb00cfa2de000400be00b8f50700c9
:102dc4000002be006266260063fa23000400be000f
:102dd40056f507000002be000400be0095f507008a
:102de4000002be00244798000042eb00044f780024
:102df400140037002e429000144798000700370053
:102e04009e4090001e40780005fe07009e42900000
:102e14002e42900004c24200144798001e429000c3
:102e24008482fb002e4290000482fb0006042000f2
:102e340004025300848f5200f1ff35001e427800d3
:102e4400634f4200e4c7b3009e42780084cf52002f
:102e5400e8ff36004e42900004cfe9000f0037002f
:102e64000042eb0014479800060037009e40900093
:102e74001e407800eafd07001e42900004c2e800ec
:102e8400144798009e429000e4c3b30084cf5200dc
:102e9400f6ff36004e4290001e4f4200b4c7b30006
:102ea4009e42780084cf5200edff36000080fa0085
:102eb400000006000600fa002047980031479800f9
:102ec40042479800534798000042eb00044f7800b3
:102ed4000042eb00044f78000b0037002e429000b4
:102ee4001e424200be40900004407800eefd070000
:102ef4002e4290001e424200de40900004407800c2
:102f0400e9fd07001e4fe8001e4278008482fb00a2
:102f14004e4290000483fb002e4290000482fb008a
:102f2400040253000402e800848f5200ebff3500d2
:102f34000042eb00044f78000b0037003e42900043
:102f44001e424200844078002e409000d6fd0700c7
:102f54003e4290001e424200844078004e40900061
:102f6400d1fd07001e4fe8001e4278008482fb005a
:102f74005e4290000483fb003e4290000482fb000a
:102f8400040253000402e800848f5200ebff350072
:102f94000080fa00000006000000fa00cda2a9009b
:102fa400cdc2a900d322a800d302a800c162a900ff
:102fb400a962a800c762a800dec2a9000080fa00c6
:102fc40000000600801f7800841f78003400f80099
:102fd40000002000a00188000000fa008520a9005c
:102fe4009410800004427800044078001ee8b70082
:102ff4000080fa003400f9004f0278004f00780096
:10300400004006000400fa00100798000002eb00dc
:10301400040f7800010037001e0fe8001e02900024
:103024009e027800848f5200fbff39000080fa0072
:10303400000006000000fa00cfa2a800cfc2a90039
:10304400d1a2a800d1c2a900401f2000edff0700b3
:10305400b440800024408800d1a2a900d1c2a800b5
:10306400cfa2a900cfc2a800401f2000e5ff07009f
:10307400c44080003440880024408000f40eb10035
:10308400050020000400be0008f507000002be0091
:10309400d2b72c00c3d123000400be0058f50700aa
:1030a4000002be000400be00e2f407000002be00fd
:1030b4000402780004408800344080007414b10095
:1030c400050020000400be00f8f407000002be0062
:1030d400e27b260043ca23000400be0048f5070033
:1030e4000002be000400be00d2f407000002be00cd
:1030f40004027800144088000080fa0000000600f2
:10310400841f78003400f80004002000a401880023
:103114000000fa0004148000644088001414800045
:1031240074408800241480004440880034148000d3
:103134005440880044408000b440880054408000db
:10314400c440880064408000d440880074408000fb
:10315400e44088008560a9000080fa003400f9008a
:103164004f027800004006000400fa00100798009f
:103174009e029000843e2000110009008482d80041
:1031840000027800044f780005c3b3001ec2420059
:103194000440780032fe07001e4078008082fb0065
:1031a40084c12f0004aab900040278009e02900092
:1031b40004824200140798009e02900044062000f6
:1031c400110009008482d80000027800044f7800be
:1031d40005c3b3001ec242000440780020fe07006d
:1031e4001e4078008082fb00c4f92f0004aab900b5
:1031f400040278009e0290000482420014079800a2
:103204009e029000a4002000110009008482d800ce
:1032140000027800044f780005c3b3001ec24200c8
:10322400044078000efe07001e4078008082fb00f8
:1032340064ff2f0004aab900040278009e029000e3
:1032440004824200140798001e0290000442780091
:103254000443b0000440780001fe07000080fa0037
:10326400000006000200fa00000f78000002eb00e4
:1032740034418800000000009e0278003441800040
:10328400848f5200fcff3e000080fa00000006001c
:10329400841f78003400f80004002000a401880092
:1032a4000000fa000002eb0034088800344180007a
:1032b4000402e8003441880084c0a9000080fa00b8
:1032c4003400f9004f02780000400600841f7800a3
:1032d4003400f80004002000a40188000000fa0073
:1032e40014002000444188008600a9000080fa00f0
:1032f4003400f9004f027800004006000000fa0094
:10330400d4012000140488008600a9008e00a800bf
:103314000080fa00000006000200fa00000f7800a6
:103324001e027800e10f520007003a00e2c2a80032
:1033340040012000cbff0700e2c2a900400b20009f
:10334400c8ff070006003700e2c2a800f000200012
:10335400c4ff0700e2c2a900900b2000c1ff0700d0
:103364000080fa00000006000000fa000002eb00f2
:10337400044188000002eb00144188000042eb0085
:10338400044078001ee8b7000002eb0024418800e6
:103394000002eb00444188000000eb00deff070060
:1033a40019fc07000080fa00000006000200fa0081
:1033b400000f780014fc07001e0278006123b90096
:1033c4000082eb008082eb000602420087824a0002
:1033d4003600200007002000860f5200878f5a0015
:1033e4006b003e0004600100030037001d0037003d
:1033f400350037004d00370080d92800f10107005f
:10340400010037000000000031c0b300a0c1b300c8
:1034140077fb0700d0db280054fe0700c562a80034
:10342400800220008fff0700c562a9005000200021
:103434008cff0700e58120009542780024c5b30085
:1034440084cf5200efff3a000002eb0054418800a1
:103454000002eb0064418800c3ff07000002eb0098
:103464004c003700b0dc2800d6010700010037000b
:103474000000000031c0b300a0c1b3005cfb070032
:1034840080dd280039fe0700c562a8008002200004
:1034940074ff0700c562a9005000200071ff0700f7
:1034a400e58120009542780024c5b30084cf520002
:1034b400efff3a00acff07000002eb006441880014
:1034c4000002eb003300370050de2800bd01070086
:1034d400010037000000000031c0b300a0c1b300f8
:1034e40043fb070040df280020fe0700c562a80058
:1034f400800220005bff0700c562a9005000200085
:1035040058ff0700e58120009542780024c5b300e8
:1035140084cf5200efff3a0093ff07000002eb0054
:10352400644188000002eb001a00370030e02800f4
:10353400a4010700010037000000000031c0b300ff
:10354400a0c1b3002afb0700b0e1280007fe070072
:10355400c562a8008002200042ff0700c562a900de
:10356400500020003fff0700e581200095427800cd
:1035740024c5b30084cf5200efff3a007aff07005e
:103584000002eb00644188000002eb0001003700f8
:1035940000003700040078000080fa0000000600f4
:1035a4000000fa004afa07007bfe07005afb0700f6
:1035b40095fb07001f0107009e0107009201070009
:1035c400a1e2a8004dff0700e10107000300370056
:1035d40000000000010037000000000095fe070015
:1035e40011c0b300d0c0b30001fb0700a0e2280063
:1035f400defd070043c1b300d2c1b30011c0b30064
:1036040010c0b300ddfc070011c0b300d0c2b3008a
:10361400f7fa0700c0e22800d4fd070043c1b30055
:10362400e2c3b30011c0b30000c2b300d3fc07006f
:1036340011c0b300e0c4b300edfa0700e0e22800d3
:10364400cafd070043c1b300f2c5b30011c0b30003
:1036540010c4b300c9fc070011c0b300f0c6b30026
:10366400e3fa070000e32800c0fd070043c1b300ec
:10367400f2c7b30011c0b30020c6b300bffc0700fb
:1036840004408000e00f520011003200044080002a
:10369400fd0f52000e003e0015408000a4022000e1
:1036a400848f52000a00360015408000e403200095
:1036b400848f520006003e00044180000402e800aa
:1036c40004418800144180000400a00014418800d3
:1036d40004408000ff0f52001800360005408000af
:1036e400e4032000848f520014003e001540800043
:1036f400a4022000848f5200100036001540800080
:10370400e4032000848f52000c003e00144180002a
:10371400e10f52000300320014002000244188000d
:1037240003003700144180000410a00014418800f5
:10373400044180000402e800044188000540800040
:1037440004042000848f52001800360005408000d5
:10375400f4052000848f520014003e0015408000c0
:10376400a4022000848f520010003600154080000f
:10377400e4032000848f52000c003e0014418000ba
:10378400e30f52000300320014002000244188009b
:1037940003003700144180000420a0001441880075
:1037a400044180000402e8000441880005408000d0
:1037b40014062000848f5200180036000540800053
:1037c400f4072000848f520014003e00154080004e
:1037d400a4022000848f520010003600154080009f
:1037e400e4032000848f52000c003e00144180004a
:1037f400e70f520003003200140020002441880027
:1038040003003700144180000430a00014418800f4
:10381400044180000402e80004418800044180005f
:10382400050020004600200007002000860f5200fb
:10383400878f5a0024003e00046001000400370012
:10384400090037000e003700130037001800370056
:1038540031c0b300b0c2b30065fa070020e328000a
:1038640042fd07001800370031c0b300b0c2b300f6
:103874005ffa070070e328003cfd070012003700e0
:1038840031c0b300b0c2b30059fa0700d0e3280036
:1038940036fd07000c00370031c0b300b0c2b300de
:1038a40053fa070040e4280030fd07000600370003
:1038b40031c0b300b0c2b3004dfa0700c0e4280021
:1038c4002afd07000000000004418000e40f5200bc
:1038d40025003a0014418000ef0f520015003a0011
:1038e40024418000e00f520012003a0051c0b3009e
:1038f40050c2b3003efa070050e528001bfd070044
:103904001000200084fe070000e62800ad00070038
:103914000002eb0054418800644180000402e80086
:103924006441880000e224004efe07008efe07007a
:103934000d00370051c0b300f0c2b3002cfa0700e9
:1039440040e7280009fd0700b0e728009d000700b4
:10395400544180000402e8005441880000712200b0
:1039640040fe070080fe0700a5168000042020000a
:1039740004826200e00f5200020032000000eb00fb
:1039840065fe070054418000e30f520002003a0034
:103994001000200085fe0700d5408000c45d200093
:1039a400848f520002003600200020007ffe0700b2
:1039b400e5408000047d2000848f52000200360020
:1039c4003000200079fe07004516800004802000a6
:1039d40004826200e00f52000d0032006441800056
:1039e400e00f52000a003200100020004afe0700d7
:1039f400b0e928007300070000e2240019fe070064
:103a040059fe0700644180000402e9006441880013
:103a140044418000e10f5200edfe3a006441800011
:103a2400e00f5200ecfe3a00400020005ffe070069
:103a3400eafe37000000fa0054012000a4108800b8
:103a44000d42a9008d20a80075108000c4ff2f002e
:103a540004826200741088000de2a8000f42a800de
:103a64000080fa00000006000200fa00000f78004f
:103a74000000000075108000041020000482620021
:103a8400e00f5200fbff3200641080006602620007
:103a9400e60f520003003a001e02780084108800ea
:103aa40003003700f40f20001e0262008410880017
:103ab4000080fa00000006000400fa0010079800d5
:103ac4009e029000843e2000110009008482d800e8
:103ad40000027800044f78009e4278000582fb00c3
:103ae4000403b00004007800dfff07001e407800e4
:103af4008082fb0084c12f0004aab900040278006c
:103b04009e02900004824200140798009e029000d6
:103b140044062000110009008482d80000027800c5
:103b2400044f78009e4278000582fb000403b00035
:103b340004007800ccff07001e4078008082fb0060
:103b4400c4f92f0004aab900040278009e02900070
:103b540004824200140798009e029000a4002000f2
:103b6400110009008482d80000027800044f780014
:103b74009e4278000582fb000403b0000400780034
:103b8400b9ff07001e4078008082fb0064ff2f000d
:103b940004aab900040278009e0290000482420044
:103ba400140798001e0290000403b000040078007b
:103bb400adff0700d0002000abff07000080fa0033
:103bc400000006000000fa00881f78000004780056
:103bd40005003700184278000402fb000400780056
:103be400a1ff07000804e80018427800e04f5200e3
:103bf400f8ff3a00d00020009bff07004f04780034
:103c04000080fa00000006000000fa00a902a900e2
:103c1400a922a900a8c2a900a8e2a900c702a80075
:103c2400c722a800c6c2a800c6e2a8000080fa0005
:103c3400000006000000fa00a1a2a90004158000fb
:103c44000480a1000490a1000415880004158000dc
:103c54000450a0000460a0000470a00004158800b3
:103c6400a022a8001415800004d0a00004e0a00045
:103c740004f0a00014158800a342a80014158000c5
:103c84000420a0000430a0000440a1000450a100be
:103c940014158800a222a900a202a90025158000fb
:103ca40004f021000482720024158800a4e2a80014
:103cb4002515800004fc2f0004826200f401b30087
:103cc40024158800a782a900a682a90034158000c3
:103cd4000400a1000410a1000420a1000430a100ec
:103ce40034158800341580000480a1000490a100dc
:103cf40004a0a10004b0a10034158800043c2000f5
:103d040054158800a042a8008560a8008d60a80012
:083d14000080fa000000060027
:020000040000fa
:103d1c00000800002a000000000000002a08000033
:103d2c000400000002000000000000000000000081
:103d3c002e0800000400000002000000000000003b
:083d4c0000000000000000006f
:020000040000fa
:103d54000000fa000002eb0034088800d4142000ac
:103d6400640888001021a90084c0a9008cc0a800a0
:0c3d740011e1a8000080fa000000060029
:020000040000fa
:0200000401f009
:04000000f57f000088
:020000040000fa
:0200000401f009
:04000400ff7f00007a
:020000040000fa
:0200000401f009
:04001400ffff0000ea
:00000001FF
